02532001086280000003D952745262PIC N SAVE                         5055 W SAHARA AVE                  LAS VEGAS                     NV891460000      20214PNS STORES INC                     51-NV4701 LASVEGASNV               0000250000260000290000120111                                                         C                                                                                                                    
02532001086280000006D952745262PIC N SAVE                         5017 S MCCARRAN BLVD               RENO                          NV895020000      20214PNS STORES INC                     51-NV4289 RENONV                   0000130000140000150000094920                                                         C                                                                                                                    
02532001086280000013D952745262PIC N SAVE                         8140 S EASTERN AVE                 LAS VEGAS                     NV891230000      20214PNS STORES INC                     51-NV4500 LASVEGASNV               0000210000230000240000118885                                                         C                                                                                                                    
02532001086280000014D952745262PIC N SAVE                         8570 W LAKE MEAD BLVD              LAS VEGAS                     NV891280000      20214PNS STORES INC                     51-NV4501 LASVEGASNV               0000310000310000330000144690                                                         C                                                                                                                    
02532001086280000015D952745262PIC N SAVE                         1601 W CRAIG RD                    N LAS VEGAS                   NV890320000      20214PNS STORES INC                     51-NV4718 NLSVGSNV                 0000250000230000210000107938                                                         C                                                                                                                    
02532001086280000016D952745262PIC N SAVE                         1221 W WARM SPRINGS RD             HENDERSON                     NV890140000      20214PNS STORES INC                     51-NV4514 HENDRSONNV               0000230000220000240000113012                                                         C                                                                                                                    
02532001086280000017D952745262PIC N SAVE                         4215 S CARSON ST                   CARSON CITY                   NV897010000      20214PNS STORES INC                     51-NV4563 CARSNCTYNV               0000200000180000230000123423                                                         C                                                                                                                    
02532001086280000018D952745262PIC N SAVE                         3940 BLUE DIAMOND RD               LAS VEGAS                     NV891390000      20214PNS STORES INC                     51-NV4560 LASVEGASNV               0000220000210000240000119616                                                         C                                                                                                                    
02532001086280000019D952745262PIC N SAVE                         7881 W TROPICAL PKWY               LAS VEGAS                     NV891490000      20214PNS STORES INC                     51-NV4639 LASVGSNV                 0000190000200000220000108840                                                         C                                                                                                                    
02532001086280000020D952745262PIC N SAVE                         350 W LAKE MEAD PKWY               HENDERSON                     NV890150000      20214PNS STORES INC                     51-NV4631 HNDRSONNV                0000210000230000230000103720                                                         C                                                                                                                    
02532001086280000021D952745262PIC N SAVE                         200 LEMMON DR                      RENO                          NV895060000      20214PNS STORES INC                     51-NV4642 RENONV                   0000150000170000180000105954                                                         C                                                                                                                    
02532001086280000022D952745262PIC N SAVE                         1300 DISC DR                       SPARKS                        NV894360000      20214PNS STORES INC                     51-NV4677 SPARKSNV                 0000190000210000210000119925                                                         C                                                                                                                    
02532001086280000023D952745262PIC N SAVE                                                                                                     30    20214PNS STORES INC                     STATEWIDE                          0000000000000000000000000897                                                         C                                                                                                                    
02532001086280000024D952745262PIC N SAVE                         5120 S FT APACHE                   LAS VEGAS                     NV891480000      20214PNS STORES INC                     51-NV4726 LSVGSNV                  0000220000220000250000116219                                                         C                                                                                                                    
02532001300340000001D581853319THE HOME DEPOT                     861 S RAINBOW BLVD                 LAS VEGAS                     NV89145          20214HOME DEPOT U S A  INC              RAINBOW RD                         0001920001910001830001382880                                                         C                                                                                                                    
02532001300340000002D581853319THE HOME DEPOT                     6590 S VIRGINIA ST                 RENO                          NV89511          20214HOME DEPOT U S A  INC              RENO                               0001400001380001350001081460                                                         C                                                                                                                    
02532001300340000003D581853319THE HOME DEPOT                     1030 SUNSET RD                     HENDERSON                     NV89014          20214HOME DEPOT U S A  INC              HENDERSON                          0001830001870001910001351376                                                         C                                                                                                                    
02532001300340000004D581853319THE HOME DEPOT                     1401 S LAMB BLVD                   LAS VEGAS                     NV89104          20214HOME DEPOT U S A  INC              CHARLESTON BLVD                    0001940001950001980001566860                                                         C                                                                                                                    
02532001300340000005D581853319THE HOME DEPOT                     2955 NORTHTOWNE LN                 RENO                          NV89512          20214HOME DEPOT U S A  INC              N RENO                             0001870001800001760001372694                                                         C                                                                                                                    
02532001300340000006D581853319THE HOME DEPOT                     2200 E SERENE AVE                  LAS VEGAS                     NV89123          20214HOME DEPOT U S A  INC              S LAS VEGAS                        0001980002010002000001473614                                                         C                                                                                                                    
02532001300340000007D581853319THE HOME DEPOT                     5125 SUMMIT RIDGE CT               RENO                          NV89523          20214HOME DEPOT U S A  INC              W RENO                             0001750001710001680001329447                                                         C                                                                                                                    
02532001300340000008D581853319THE HOME DEPOT                     1275 W CRAIG RD                    NORTH LAS VEGAS               NV89032          20214HOME DEPOT U S A  INC              NORTH LAS VEGAS                    0001640001590001590001248881                                                         C                                                                                                                    
02532001300340000009D581853319THE HOME DEPOT                     921 JACKS VALLEY RD                CARSON CITY                   NV89705          20214HOME DEPOT U S A  INC              CARSON CITY                        0001560001460001460001269059                                                         C                                                                                                                    
02532001300340000010D581853319THE HOME DEPOT                     9705 W CHARLESTON BLVD             LAS VEGAS                     NV89117          20214HOME DEPOT U S A  INC              SUMMERLIN W LAS VEGAS              0001550001620001620001245885                                                         C                                                                                                                    
02532001300340000011D581853319THE HOME DEPOT                     7881 W TROPICAL PKWY               LAS VEGAS                     NV89149          20214HOME DEPOT U S A  INC              NW LAS VEGAS CENTENNI              0001790001910001860001434144                                                         C                                                                                                                    
02532001300340000012D581853319THE HOME DEPOT                     6025 S PECOS RD                    LAS VEGAS                     NV89120          20214HOME DEPOT U S A  INC              PECOS                              0001720001760001710001263473                                                         C                                                                                                                    
02532001300340000013D581853319THE HOME DEPOT                     4750 S DECATUR BLVD                LAS VEGAS                     NV89103          20214HOME DEPOT U S A  INC              LAS VEGAS TROPICANA                0001640001640001600001346111                                                         C                                                                                                                    
02532001300340000015D581853319THE HOME DEPOT                     4195 S FT APACHE RD                LAS VEGAS                     NV89147          20214HOME DEPOT U S A  INC              SW LAS VEGAS                       0001420001430001360001094504                                                         C                                                                                                                    
02532001300340000017D581853319THE HOME DEPOT                     1001 STEAMBOAT PKWY                RENO                          NV89521          20214HOME DEPOT U S A  INC              SOUTH RENO                         0001570001570001600001087079                                                         C                                                                                                                    
02532001300340000018D581853319THE HOME DEPOT                     2955 MOUNTAIN CITY HWY             ELKO                          NV89801          20214HOME DEPOT U S A  INC              ELKO NV                            0001310001260001200000946189                                                         C                                                                                                                    
02532001300340000019D581853319THE HOME DEPOT                     4655 GALLERIA PKWY                 SPARKS                        NV89436          20214HOME DEPOT U S A  INC              NORTH SPARKS NV                    0001740001720001770001313919                                                         C                                                                                                                    
02532001300340000021D581853319THE HOME DEPOT                     7015 ARROYO XING PKWY              LAS VEGAS                     NV89113          20214HOME DEPOT U S A  INC              LAS VEGAS 215   RAINB              0001930002020002150001523653                                                         C                                                                                                                    
02532001300340000022D581853319THE HOME DEPOT                     3185 MARKET ST                     CARSON CITY                   NV89706          20214HOME DEPOT U S A  INC              CARSON CITY 4C                     0001190001180001150000900709                                                         C                                                                                                                    
02532001300340000023D581853319THE HOME DEPOT                     301 N HWY 160                      PAHRUMP                       NV89060          20214HOME DEPOT U S A  INC              PAHRUMP                            0001420001430001410001035110                                                         C                                                                                                                    
02532001300340000024D581853319THE HOME DEPOT                     855 E DORRELL LANE                 NORTH LAS VEGAS               NV89086          20214HOME DEPOT U S A  INC              ALIANTE 5TH AND LOOP               0001400001420001390000998910                                                         C                                                                                                                    
02532001300340000028D581853319THE HOME DEPOT                     7340 EASTGATE RD                   HENDERSON                     NV89011          20214HOME DEPOT U S A  INC              HDI LAS VEGAS-ER                   0000120000120000120000188462                                                         C                                                                                                                    
02532001300340000029D581853319THE HOME DEPOT                     4031 INDUSTRIAL CENTER DR   70     NORTH LAS VEGAS               NV89030          20214HOME DEPOT U S A  INC              IB LAS VEGAS DC                    0000250000250000260000386636                                                         C                                                                                                                    
02532001300340000030D581853319THE HOME DEPOT                                                                                                       20214HOME DEPOT U S A  INC              IB JACKSONVILLE CORP               0000980000970000990001868894                                                         C                                                                                                                    
02532001300340000031D581853319THE HOME DEPOT                     555 MILAN DR                       SPARKS                        NV89437          20214HOME DEPOT U S A  INC              RENO NRC G A                       0000020000020000020000049535                                                         C                                                                                                                    
02532001300340000033D581853319THE HOME DEPOT                     6521 W POST RD  STE 1              LAS VEGAS                     NV89113          20214HOME DEPOT U S A  INC              IB GOETTL LAS VEGAS V              0000020000020000020000024916                                                         C                                                                                                                    
02532001300340000034D581853319THE HOME DEPOT                     5585 S VALLEY VIEW BLVD  STE 3     LAS VEGAS                     NV89118          20214HOME DEPOT U S A   INC             INTERLINE PRO CENTER               0000030000030000030000043079                                                         C                                                                                                                    
02532001300340000035D581853319THE HOME DEPOT                     4350 N 5TH ST                      NORTH LAS VEGAS               NV89032          20214HOME DEPOT U S A   INC             LAS VEGAS MDO - 5925               0000220000220000220000294140                                                         C                                                                                                                    
02532001300340000036D581853319THE HOME DEPOT                     447 INGENUITY DR                   SPANISH SPRINGS               NV89436          20214HOME DEPOT U S A   INC             SPARKS MDO - 5924                  0000130000130000130000177331                                                         C                                                                                                                    
02532001422830000003D752354902CHILIS                             5090 SMITHRIDGE DR                 RENO                          NV89502          20214BRINKER INTL PAYROLL CO  LP        NV-0507C CHI 0507                  0000540000550000550000452301                                                         C                                                                                                                    
02532001422830000008D752354902CHILIS                             2011 N RAINBOW BLVD                LAS VEGAS                     NV891087050      20214BRINKER INTL PAYROLL CO  LP        NV-0519C CHI 0519                  0000580000550000620000410637                                                         C                                                                                                                    
02532001422830000012D752354902BRINKER INTL PAYROLL CO LP                                                                                           20214BRINKER INTL PAYROLL CO  LP        STATEWIDE                          0000030000040000030000135502                                                         C                                                                                                                    
02532001422830000013D752354902CHILIS                             9051 W CHARLESTON BLVD             LAS VEGAS                     NV89117          20214BRINKER INTL PAYROLL CO  LP        NV-0675C CHI 0675                  0000450000440000450000363941                                                         C                                                                                                                    
02532001422830000014D752354902CHILIS                             10080 S EASTERN AVE                HENDERSON                     NV890523906      20214BRINKER INTL PAYROLL CO  LP        NV-0676C CHI 0676                  0000550000520000520000414712                                                         C                                                                                                                    
02532001422830000015D752354902CHILIS                             10340 N MCCARRAN BLVD              RENO                          NV895036848      20214BRINKER INTL PAYROLL CO  LP        NV-0674C CHI 0674                  0000590000620000650000458591                                                         C                                                                                                                    
02532001422830000016D752354902CHILIS                             3784 US HWY 395 S                  CARSON CITY                   NV897056898      20214BRINKER INTL PAYROLL CO  LP        NV-0977C CHI 0977                  0000430000400000410000414205                                                         C                                                                                                                    
02532001422830000017D752354902MAGGIANOS                          3200 LAS VEGAS BLVD S STE 2144     LAS VEGAS                     NV891090722      20214BRINKER INTL PAYROLL CO  LP        NV-0193G MGO 0193                  0001220001180001170001442942                                                         C                                                                                                                    
02532001422830000018D752354902CHILIS                             7530 S LAS VEGAS BLVD              LAS VEGAS                     NV891231009      20214BRINKER INTL PAYROLL CO  LP        NV-1142C CHI 1142                  0000540000590000600000467206                                                         C                                                                                                                    
02532001422830000018 P00142283000002520214                                                                                                                                                                                                                                                                                                                                                                                              
02532001422830000020D752354902CHILIS                             6505 N DECATUR BLVD                LAS VEGAS                     NV891312796      20214BRINKER INTL PAYROLL CO  LP        NV-1264C CHI 1264                  0000750000720000760000530361                                                         C                                                                                                                    
02532001422830000024D752354902CHILIS                             7335 ARROYO XING PKWY              LAS VEGAS                     NV89118          20214BRINKER INTL PAYROLL CO  LP        NV-1371C CHI 1371                  0000500000530000450000366946                                                         C                                                                                                                    
02532001422830000025D752354902CHILIS                             3743 LAS VEGAS BLVD                LAS VEGAS                     NV89109    93    20214BRINKER INTL PAYROLL CO  LP        NV-1550C CHI 1550                  0000000000000000000000000000                                                         C      5                   20210930                                                                                  
02532001422830000025 S00142283000001820214                                                                                                                                                                                                                                                                                                                                                                                              
02532001422830000026D752354902MAGGIANOS                          10940 ROSEMARY PARK DR             LAS VEGAS                     NV89135          20214BRINKER INTL PAYROLL CO  LP        NV-0223G MGO 0223                  0000780000770000830000751843                                                         C                                                                                                                    
02532001610850000001D391413708ABC SUPPLY CO                      1650 LINDA WAY                     SPARKS                        NV894316159      20214AMERICAN BUILDERS AND CONTRACTORS S257 SPARKS  NV                     0000190000190000190000498634                                                         C                                                                                                                    
02532001610850000002D391413708ABC SUPPLY CO                      3670 PROCYON ST                    LAS VEGAS                     NV891031906      20214AMERICAN BUILDERS AND CONTRACTORS S132 LAS VEGAS  NV                  0000150000150000160000295355                                                         C                                                                                                                    
02532001610850000003D391413708ABC SUPPLY CO                      571 S BLAGG RD                     PAHRUMP                       NV890484612      20214AMERICAN BUILDERS AND CONTRACTORS S343 PAHRUMP  NV                    0000060000060000060000090744                                                         C                                                                                                                    
02532001610850000007D391413708ABC SUPPLY CO                      5831 HWY 50 E                      CARSON CITY                   NV89701          20214AMERICAN BUILDERS AND CONTRACTORS S277 CARSON CITY  NV                0000080000080000080000141926                                                         C                                                                                                                    
02532001922980000001D311241495THE CHILDRENS PL                   5435 MEADOWOOD MALL CIRCL          RENO                          NV89502          20214THE CHILDRENS PL  INC              01010-MEADOWOOD MALL               0000090000120000100000042361                                                         C                                                                                                                    
02532001922980000002D311241495THE CHILDRENS PL                   1300 W SUNSET RD                   HENDERSON                     NV89014          20214THE CHILDRENS PL  INC              01245-GALLERIA AT SUNSET           0000070000120000130000042549                                                         C                                                                                                                    
02532001922980000003D311241495THE CHILDRENS PL                   4300 MEADOWS LA                    LAS VEGAS                     NV89107          20214THE CHILDRENS PL  INC              01310-MEADOWS MALL                 0000110000130000140000054489                                                         C                                                                                                                    
02532001922980000006D311241495THE CHILDRENS PL                   755 S GRAND CENTRAL PKWY           LAS VEGAS                     NV89106          20214THE CHILDRENS PL  INC              01644-LAS VEGAS PREMIUM OUTLETS    0000120000140000140000058261                                                         C                                                                                                                    
02532001922980000008D311241495THE CHILDRENS PL                                                                                                     20214THE CHILDRENS PL  INC              FIRM DID NOT PROVIDE ADDRESS       0000020000020000020000088854                                                         C                                                                                                                    
02532001922980000009D311241495THE CHILDRENS PL                   7909 W  TROPICAL PKWY              LAS VEGAS                     NV89149          20214THE CHILDRENS PL  INC              04225-CENTENNIAL CENTER LAS VEGAS  0000130000120000110000032823                                                         C                                                                                                                    
02532001922980000010D311241495THE CHILDRENS PL                   7400 LAS VEGAS BLVD S              LAS VEGAS                     NV89123          20214THE CHILDRENS PL  INC              04385-LAS VEGAS PREMIUM SOUTH      0000110000180000140000050473                                                         C                                                                                                                    
02532002592940000001D270324650J JILL                             13945  S  VIRGINIA  ST             RENO                          NV89511          20214JILL ACQUISITION LLC               3221 - THE SUMMIT RENO             0000080000110000060000046165                                                         C                                                                                                                    
02532002592940000002D270324650J JILL                             2120 FESTIVAL PLZ DR               LAS VEGAS                     NV89135          20214JILL ACQUISITION LLC               3655 - SUMMERLIN TOWN CENTER       0000060000070000060000043451                                                         C                                                                                                                    
02532002753850000001D362718986L W SUPPLY                         4450 MCGUIRE ST                    N LAS VEGAS                   NV89081          20214L W SUPPLY CORP                    7326 L W NORTH LAS VEGAS  NV       0000290000280000280000555956                                                         C                                                                                                                    
02532002753850000002D362718986L W SUPPLY                         340 WOLVERINE WAY                  SPARKS                        NV89431          20214L W SUPPLY CORP                    7188 L W SPARKS  NV                0000220000230000230000489298                                                         C                                                                                                                    
02532002753850000003D362718986ABC SUPPLY CO                                                                                                        20214L W SUPPLY CORP                    FIRM DID NOT PROVIDE ADDRESS       0000020000020000020000044069                                                         C                                                                                                                    
