02632000024280000000D880049540                                                                                                                     20214WILSON-BATES FURNITURE COMPAN                                                                                                                              W                                                                                                                                                                                        MARILYN WHITE                      BOOKKEEPER                         349 AULTMAN ST                                                        ELY                           NV83301    2087336146110  2087339380MARILYN@WILSONBATES.COM                                     00000                                   1
02632000024280000001D880049540WILSON-BATES FURNITURE COMPANY     349 AULTMAN STREET                 ELY                           NV89301          20214WILSON-BATES FURNITURE COMPAN                                         0000100000100000100000079731                                                         W033                                                                                                                                                                                                                                                                                                                                                                                                                                                               00000                                   1
02632000024280000002D880049540WILSON-BATES FURNITURE COMPANY     2990 IDAHO STREET                  ELKO                          NV89801          20214WILSON-BATES FURNITURE COMPAN                                         0000150000150000160000184064                                                         W007                                                                                                                                                                                                                                                                                                                                                                                                                                                               00000                                   1
02632000282830000000D880067712                                                                                                                     20214STATE CONTRACTORS BOARD-STATE                                                                                                                              W                                                                                                                                                                                        DEBORAH LUMBERT                                                       5390 KIETZKE LANE, SUITE 102                                          RENO                          NV89511    7758507831               DLUMBERT@NSCB.STATE.NV.US                                   00000                                   1
02632000282830000001D880067712STATE CONTRACTORS BOARD-STATE      8400 WEST SUNSET ROAD, SUITE 150   LAS VEGAS                     NV89113    99    20214STATE CONTRACTORS BOARD-STATE      OFFICE #2                          0000270000290000290000437481THERE WAS AN EXTRA PAY DAY IN THE PRIOR PAY PERIOD       W003000                                                                                                                                                                                                                                                                                                                                                                                                                                                            00000                                   1
02632000282830000003D880067712STATE CONTRACTORS BOARD-STATE      5390 KIETZKE LANE STE 102          RENO                          NV89511    99    20214STATE CONTRACTORS BOARD-STATE      OFFICE #1                          0000170000180000170000236497THERE WAS AN EXTRA PAY DAY IN THE PRIOR PERIOD           W031                                                                                                                                                                                                                                                                                                                                                                                                                                                               00000                                   1
02632000301000000000D840816430                                                                                                                     20214SRK CONSULTING (US) INC                                                                                                                                    W                                                                                                                                                                                        SHERYL MCARTHUR                    CONTROLLER                         1125 17TH ST                                                          DENVER                        CO80202    7202489603     3039859947SMCARTHUR@SRK.COM                                           00000                                   1
02632000301000000001D840816430SRK CONSULTING INC                 5250 NEIL RD                       RENO                          NV89502          20214SRK CONSULTING (US) INC                                               0000230000230000230000702479                                                         W031                                                                                                                                                                                                                                                                                                                                                                                                                                                               00000                                   1
02632000301000000002D840816430SRK CONSULTING INC                 1250 LAMOILLE HWY #520             ELKO                          NV89801          20214SRK CONSULTING (US) INC                                               0000050000060000060000140897                                                         W007                                                                                                                                                                                                                                                                                                                                                                                                                                                               00000                                   1
02632000348390000000D880203028                                                                                                                     20214A-1 RADIATOR REPAIR INC                                                                                                                                    W                                                                                                                                                                                        KEN ZEAL                                                              875 E 2ND ST                                                          RENO                          NV8950281197753220191775  7753221739KEN@A1RADIATOR.COM                                          00000                                   1
02632000348390000001D880203028A-1 RADIATOR REPAIR, INC           875 E SECOND STREET                RENO                          NV895025000      20214A-1 RADIATOR REPAIR INC            RENO                               0000110000110000110000201364                                                         W031                                                                                                                                                                                                                                                                                                                                                                                                                                                               00000                                   1
02632000348390000002D880203028A-1 RADIATOR REPAIR, INC           4270 E IDAHO STREET                ELKO                          NV89801          20214A-1 RADIATOR REPAIR INC            ELKO                               0000110000110000110000164886                                                         W007                                                                                                                                                                                                                                                                                                                                                                                                                                                               00000                                   1
02632000384080000000D880109068                                                                                                                     20214JOHN H BURROWS INC                                                                                                                                         W                                                                                                                                                                                        TAMMY PRICE                        COMPTROLLER                        1925 FREEPORT BLVD                                                    SPARKS                        NV89431    7753582442               JOHNBURROWS5@AOL.COM                                        00000                                   1
02632000384080000001D880109068BONANZA PRODUCE COMPANY            1925 FREEPORT BLVD                 SPARKS                        NV89431          20214JOHN H BURROWS INC                 HOME OFFICE                        0000630000630000630000848800                                                         W031                                                                                                                                                                                                                                                                                                                                                                                                                                                               00000                                   1
02632000384080000002D880109068BONANZA PRODUCE COMPANY            428 RIVER STREET                   ELKO                          NV89801          20214JOHN H BURROWS INC                 ELKO WAREHOUSE                     0000100000100000100000099986                                                         W007                                                                                                                                                                                                                                                                                                                                                                                                                                                               00000                                   1
02632000421940000000D880115649                                                                                                                     20214ARTISTIC FENCE CO INC                                                                                                                                      W                                                                                                                                                                                        JOANNE S. DIETRICH                 VICE PRESIDENT                     5740 US HIGHWAY 50 EAST                                               CARSON CITY                   NV897011413775882466511   7758824605JOANNE@ARTISTICFENCE.COM                                    00000                                   1
02632000421940000004D880115649ARTISTIC FENCE CO., INC.           480 MORRILL AVE                    RENO                          NV89512    99    20214ARTISTIC FENCE CO INC                                                 0000220000220000220000286613ONE EMPLOYEE QUIT                                        W031                                                                                                                                                                                                                                                                                                                                                                                                                                                               00000                                   1
02632000421940000005D880115649ARTISTIC FENCE CO., INC.           5740 HWY 50 EAST                   CARSON CITY                   NV89706    99    20214ARTISTIC FENCE CO INC                                                 0000150000150000150000286138WE ACTUALLY HAVE ONE MORE                                W510                                                                                                                                                                                                                                                                                                                                                                                                                                                               00000                                   1
02632000421940000007D880115649ARTISTIC FENCE CO., INC            720 FAIRGROUNDS RD                 WINNEMUCCA                    NV89445    99    20214ARTISTIC FENCE CO INC                                                 0000060000060000060000090013THERE WAS NO CHANGE                                      W013                                                                                                                                                                                                                                                                                                                                                                                                                                                               00000                                   1
02632000552580000000D942279451                                                                                                                     20214RENO-TAHOE SPECIALTY INC                                                                                                                                   W                                                                                                                                                                                        SHIRLEEN MURRAY                    OFFICE MANAGER                     2901 S. HIGHLAND AVE #15B                                             LAS VEGAS                     NV89109    7027961041     7027967860SHIRLEEN@RTSI-US.COM                                        00000                                   1
02632000552580000001D942279451RENO-TAHOE SPECIALTY, INC.         550 VALLEY ROAD                    RENO                          NV89512          20214RENO-TAHOE SPECIALTY INC           SATELLITE OFFICE AND PRINT SHOP    0000140000140000150000132606                                                         W031                                                                                                                                                                                                                                                                                                                                                                                                                                                               00000                                   1
02632000552580000002D942279451RENO-TAHOE SPECIALTY, INC.         2901 S HIGHLAND STE 15-B           LAS VEGAS                     NV89109          20214RENO-TAHOE SPECIALTY INC           CORPORATE OFFICE AND WAREHOUSE     0000340000340000340000499398                                                         W003                                                                                                                                                                                                                                                                                                                                                                                                                                                               00000                                   1
02632000558490000000D880176914                                                                                                                     20214NEVADA LEGAL SERVICES INC                                                                                                                                  W                                                                                                                                                                                        ANGELA TINSLEY                     HUMAN RESOURCE ADMIN.              530 S. 6TH ST.                                                        LAS VEGAS                     NV89101    7023860404127  7023862170ATINSLEY@NLSLAW.NET                                         00000                                   1
02632000558490000002D880176914NEVADA LEGAL SERVICES, INC         530 SOUTH 6TH STREET               LAS VEGAS                     NV89101          20214NEVADA LEGAL SERVICES INC          LV                                 0000200000200000160000289818                                                         W003                                                                                                                                                                                                                                                                                                                                                                                                                                                               00000                                   1
02632000558490000004D880176914NEVADA LEGAL SERVICES, INC         204 MARSH AVE                      RENO                          NV89509          20214NEVADA LEGAL SERVICES INC          RNO                                0000150000150000150000243393                                                         W031                                                                                                                                                                                                                                                                                                                                                                                                                                                               00000                                   1
02632000558490000006D880176914NEVADA LEGAL SERVICES, INC.        380 COURT ST #D                    ELKO                          NV89801          20214NEVADA LEGAL SERVICES INC          ELK                                0000010000010000010000011305                                                         W007                                                                                                                                                                                                                                                                                                                                                                                                                                                               00000                                   1
02632000558490000008D880176914NEVADA LEGAL SERVICES              720 S MAIN STREET UNIT A           YERINGTON                     NV89447          20214NEVADA LEGAL SERVICES INC          YER                                0000020000020000020000030500                                                         W019                                                                                                                                                                                                                                                                                                                                                                                                                                                               00000                                   1
02632000558490000010D880176914NEVADA LEGAL SERVICE               209 NORTH PRATT AVENUE             CARSON CITY                   NV89705          20214NEVADA LEGAL SERVICES INC          CC                                 0000020000020000020000036000                                                         W510                                                                                                                                                                                                                                                                                                                                                                                                                                                               00000                                   1
02632000558490000011D880176914NEVADA LEGAL SERVICES              701 EAST BRIDGER AVE #700          LAS VEGAS                     NV89101          20214NEVADA LEGAL SERVICES INC          ADMIN OFFICE                       0000080000080000080000196249                                                         W003                                                                                                                                                                                                                                                                                                                                                                                                                                                               00000                                   1
02632000587180000000D880140567                                                                                                                     20214D & D ROOFING & SHEET METAL I                                                                                                                              W                                                                                                                                                                                        BARBARA RIES                       CONTROLLER                         1000 GLENDALE AVENUE                                                  SPARKS                        NV89431    7756855555     7756855566BRIES@DDROOFING.COM                                         00000                                   1
02632000587180000001D880140567D & D ROOFING & SHEET METAL        1000 GLENDALE AVE                  SPARKS                        NV89431          20214D & D ROOFING & SHEET METAL I      PRIMARILY NON-RES                  0000890000850000950001405768                                                         W031                                                                                                                                                                                                                                                                                                                                                                                                                                                               00000                                   1
02632000587180000002D880140567DON JAMES ROOFING                  5263 ARROWHEAD                     CARSON CITY                   NV89706          20214D & D ROOFING & SHEET METAL I      PRIMARILY RES                      0000100000110000100000103336                                                         W510                                                                                                                                                                                                                                                                                                                                                                                                                                                               00000                                   1
02632000640660000000D880148093                                                                                                                     20214NEVADA BANK & TRUST COMPANY                                                                                                                                W                                                                                                                                                                                        GORDON WADSWORTH                   CHIEF RISK OFFICER                 PO BOX 807                                                            CALIENTE                      NV89008    77572634878046 7757263496GWADSWORTH@NEVADABANKANDTRUST.COM                           00000                                   1
02632000640660000002D880148093NEVADA BANK & TRUST COMPANY        210 FRONT ST                       CALIENTE                      NV89008          20214NEVADA BANK & TRUST COMPANY        MAIN OFFICE                        0000190000190000190000212301                                                         W017                                                                                                                                                                                                                                                                                                                                                                                                                                                               00000                                   1
02632000640660000003D880148093NEVADA BANK & TRUST COMPANY        777 AVE F                          ELY                           NV89301          20214NEVADA BANK & TRUST COMPANY        ELY OFFICE                         0000070000060000070000079648                                                         W033                                                                                                                                                                                                                                                                                                                                                                                                                                                               00000                                   1
02632000640660000008D880148093NEVADA BANK & TRUST COMPANY        852 IDAHO STREET                   ELKO                          NV89801          20214NEVADA BANK & TRUST COMPANY        ELKO                               0000090000090000090000096158                                                         W007                                                                                                                                                                                                                                                                                                                                                                                                                                                               00000                                   1
02632000640660000010D880148093NEVADA BANK & TRUST COMPANY        976 IDAHO STREET                   ELKO                          NV89801          20214NEVADA BANK & TRUST COMPANY        LOAN CENTER                        0000040000040000040000072768                                                         W007                                                                                                                                                                                                                                                                                                                                                                                                                                                               00000                                   1
02632000640660000011D880148093NEVADA BANK AND TRUST              599 W MESQUITE BLVD                MESQUITE                      NV89027          20214NEVADA BANK & TRUST COMPANY        MESQUITE OFFICE                    0000040000040000040000028139                                                         W003                                                                                                                                                                                                                                                                                                                                                                                                                                                               00000                                   1
02632000733820000000D880164801                                                                                                                     20214D & D PLUMBING INC                                                                                                                                         W                                                                                                                                                                                        TINA MCKENDREE                     BOOKKEEPER                         1655 GREG CT                                                          SPARKS                        NV8943159167753582378     7753588135TMCKENDREE@DDPLUMBING.COM                                   00000                                   1
02632000733820000001D880164801D & D PLUMBING INC                 80 WEST RICHARDS                   FALLON                        NV89406          20214D & D PLUMBING INC                 STORE # 1 - 80% COMMERCIAL         0000100000100000100000241879                                                         W001                                                                                                                                                                                                                                                                                                                                                                                                                                                               00000                                   1
02632000733820000002D880164801D & D PLUMBING INC                 1655 GREG ST                       SPARKS                        NV894315916      20214D & D PLUMBING INC                 STORE # 2 - 80% COMMERCIAL         0000710000710000710001713177                                                         W031                                                                                                                                                                                                                                                                                                                                                                                                                                                               00000                                   1
02632000903590000000D880072720                                                                                                                     20214NEVADA HUMANE SOCIETY INC                                                                                                                                  W                                                                                                                                                                                        PHIL NEFF                          CFO                                2825 LONGLEY LN. STE. B                                               RENO                          NV89502    7758562000322            PNEFF@NEVADAHUMANESOCIETY.ORG                               00000                                   1
02632000903590000001D880072720NEVADA HUMANE SOCIETY INC          2825 LONGLEY LANE #B               RENO                          NV89502          20214NEVADA HUMANE SOCIETY INC                                             0000930000900000890000840662                                                         W031                                                                                                                                                                                                                                                                                                                                                                                                                                                               00000                                   1
02632000903590000002D880072720NEVADA HUMANE SOCIETY INC          549 AIRPORT WAY                    CARSON CITY                   NV89701          20214NEVADA HUMANE SOCIETY INC                                             0000150000160000160000128669                                                         W510                                                                                                                                                                                                                                                                                                                                                                                                                                                               00000                                   1
02632000904500000000D886000024                                                                                                                     20214NEVADA SYSTEM OF HIGHER EDUCA                                                                                                                              W                                                                                                                                                                                        JEFFREY FRANCO                     ACCOUNTANT TECHNICIAN              2601 ENTERPRISE RD                                                    RENO                          NV89512    7756826693     8334519688JFRANCO@UNR.EDU                                             00000                                   1
02632000904500000001D886000024GREAT BASIN COLLEGE                1500 COLLEGE PKWY                  ELKO                          NV89801    0399  20214NEVADA SYSTEM OF HIGHER EDUCA                                         0003710003820002840003113563EMPLOYEES BACK TO WORK AND NORMAL BUSINESS OP            W007                                                                                                                                                                                                                                                                                                                                                                                                                                                               00000                                   1
02632000904500000002D886000024GREAT BASIN COLLEGE                5490 KLUNCY CANYON ROAD            WINNEMUCCA                    NV89445          20214NEVADA SYSTEM OF HIGHER EDUCA                                         0000460000480000340000260003                                                         W013                                                                                                                                                                                                                                                                                                                                                                                                                                                               00000                                   1
02632000904500000003D886000024GREAT BASIN COLLEGE                2115 BOBCAT DRIVE                  ELY                           NV89301          20214NEVADA SYSTEM OF HIGHER EDUCA                                         0000230000230000170000166043                                                         W033                                                                                                                                                                                                                                                                                                                                                                                                                                                               00000                                   1
02632000904500000004D886000024GREAT BASIN COLLEGE                835 N 2ND ST                       BATTLE MOUNTAIN               NV89820          20214NEVADA SYSTEM OF HIGHER EDUCA                                         0000090000090000050000016313                                                         W015                                                                                                                                                                                                                                                                                                                                                                                                                                                               00000                                   1
02632000904500000005D886000024GREAT BASIN COLLEGE                551 E CALVADA BLVD                 PAHRUMP                       NV89048          20214NEVADA SYSTEM OF HIGHER EDUCA                                         0000480000470000350000424813                                                         W023                                                                                                                                                                                                                                                                                                                                                                                                                                                               00000                                   1
02632000904500000006D886000024OWYHEE GREAT BASIN COLLEGE         300 COLLEGE AVE                    OWYHEE                        NV89832          20214NEVADA SYSTEM OF HIGHER EDUCA                                         0000020000020000010000001872                                                         W007                                                                                                                                                                                                                                                                                                                                                                                                                                                               00000                                   1
02632000904500000008D886000024GREAT BASIN MODULAR                2000 ELKO AVE                      WEST WENDOVER                 NV89833          20214NEVADA SYSTEM OF HIGHER EDUCA                                         0000020000020000010000001526                                                         W007                                                                                                                                                                                                                                                                                                                                                                                                                                                               00000                                   1
02632000904500000009D886000024GREAT BASIN COLLEGE                2201 WEST COLLEGE PARKWAY          CARSON CITY                   NV89703          20214NEVADA SYSTEM OF HIGHER EDUCA                                         0000010000030000020000002650                                                         W510                                                                                                                                                                                                                                                                                                                                                                                                                                                               00000                                   1
02632000904500000010D886000024GREAT BASIN COLLEGE                18600 WEDGE PARKWAY                RENO                          NV89511          20214NEVADA SYSTEM OF HIGHER EDUCA      RENO LOCATION (TMCC CAMPUS)        0000010000010000010000003600                                                         W031                                                                                                                                                                                                                                                                                                                                                                                                                                                               00000                                   1
02632000906570000000D161622853                                                                                                                     20214SO NV TRANSIT COALITION                                                                                                                                    W                                                                                                                                                                                        SUSAN CONTE                        BOOKKEEPER                         260 E LAUGHLIN CIVIC DR                                               LAUGHLIN                      NV8902915027022930600702  7022940658SUSAN@CONSULTBC.COM                                         00000                                   1
02632000906570000001D161622853SOUTHERN NEVADA TRANSIT COALITION  797 HARDY WAY                      MESQUITE                      NV89027          20214SO NV TRANSIT COALITION            MESQUITE OFFICE                    0000150000150000130000155921                                                         W003                                                                                                                                                                                                                                                                                                                                                                                                                                                               00000                                   1
02632000906570000002D161622853SOUTHERN NEVADA TRANSIT COALITION  260 E LAUGHLIN CIVIC DRIVE         LAUGHLIN                      NV89029          20214SO NV TRANSIT COALITION                                               0000340000320000300000348141                                                         W003                                                                                                                                                                                                                                                                                                                                                                                                                                                               00000                                   1
02632000906570000003D161622853SOUTHERN NV TRANSIT COALITION      710 WELLS ROAD                     BOULDER CITY                  NV89005          20214SO NV TRANSIT COALITION                                               0000140000140000140000149507                                                         W003                                                                                                                                                                                                                                                                                                                                                                                                                                                               00000                                   1
02632000907260000000D880206284                                                                                                                     20214NEVADA SENIOR SERVICES INC                                                                                                                                 W                                                                                                                                                                                        LES JACOBS                         CFO                                901 N JONES BLVD                                                      LAS VEGAS                     NV8910816037023331544     7028252608LJACOBS@NEVADASENIORSERVICES.ORG                            00000                                   1
02632000907260000001D880206284ADULT DAY CARE CENTERS OF LAS VEGAS901 N JONES BLVD                   LAS VEGAS                     NV89108          20214NEVADA SENIOR SERVICES INC                                            0000540000550000530000499759                                                         W003                                                                                                                                                                                                                                                                                                                                                                                                                                                               00000                                   1
02632000907260000002D880206284ADULT DAY CARE CENTERS OF HENDERSON1201 NEVADA STATE DRIVE            HENDERSON                     NV89002          20214NEVADA SENIOR SERVICES INC                                            0000100000110000090000057132                                                         W003                                                                                                                                                                                                                                                                                                                                                                                                                                                               00000                                   1
02632001018330000000D880228015                                                                                                                     20214DESERT CAB INC                                                                                                                                             W                                                                                                                                                                                        GEORGE BALABAN                     PRESIDENT                          4675 WYNN RD                                                          LAS VEGAS                     NV89103    7023864828171            GTBALABAN@AOL.COM                                           00000                                   1
02632001018330000001D880228015DESERT CAB INC                     4675 WYNN RD                       LAS VEGAS                     NV89103          20214DESERT CAB INC                                                        0001690001700001530002258349                                                         W003                                                                                                                                                                                                                                                                                                                                                                                                                                                               00000                                   1
02632001018330000002D880228015DESERT CAB INC                     1631 CAL EDISON                    LAUGHLIN                      NV89029          20214DESERT CAB INC                                                        0000060000060000060000052007                                                         W003                                                                                                                                                                                                                                                                                                                                                                                                                                                               00000                                   1
02632001041070000000D880229491                                                                                                                     20214FRANKS AUTO BODY INC                                                                                                                                       W                                                                                                                                                                                        DEBRA HODULIK                      SECRETARY                          1432 N. BOULDER HWY                                                   HENDERSON                     NV8901141047025646472108            DEB@FRANKSAUTOBODY.COM                                      00000                                   1
02632001041070000001D880229491FRANKS AUTO BODY                   1432 N BOULDER HWY                 HENDERSON                     NV89011          20214FRANKS AUTO BODY INC                                                  0000100000090000080000118832                                                         W003                                                                                                                                                                                                                                                                                                                                                                                                                                                               00000                                   1
02632001041070000002D880229491FRANKS AUTO BODY                   2350 SILVERWOLF DRIVE              HENDERSON                     NV89011          20214FRANKS AUTO BODY INC                                                  0000210000200000200000417788                                                         W003                                                                                                                                                                                                                                                                                                                                                                                                                                                               00000                                   1
02632001082200000000D880171874                                                                                                                     20214B & R PROPERTY MANAGEMENT INC                                                                                                                              W                                                                                                                                                                                        DELIA JO MCNAMARA                                                     8966 SPANISH RIDGE AVE, UNIT 100                                      LAS VEGAS                     NV89148    4024542561               JO.MCNAMARA@BRPROP.COM                                      00000                                   1
02632001082200000008D880171874B & R PROPERTY                     8966 SPANISH RIDGE                 LAS VEGAS                     NV89148          20214B & R PROPERTY MANAGEMENT INC      OFFICE                             0000110000110000110000135973                                                         W003                                                                                                                                                                                                                                                                                                                                                                                                                                                               00000                                   1
02632001082200000014D880171874CORAL PALMS                        3318 N DECATUR BLVD                NORTH LAS VEGAS               NV89130          20214B & R PROPERTY MANAGEMENT INC      CORAL BBMM, LLC                    0000020000020000020000026399                                                         W003                                                                                                                                                                                                                                                                                                                                                                                                                                                               00000                                   1
02632001082200000015D880171874CHANDLL                            4371 SIRIUS                        LAS VEGAS                     NV89102          20214B & R PROPERTY MANAGEMENT INC      CHANDLL, LLC                       0000020000020000020000020457                                                         W003                                                                                                                                                                                                                                                                                                                                                                                                                                                               00000                                   1
02632001082200000022D880171874COTTONWOOD CREEK                   3149 E DESERT INN ROAD             LAS VEGAS                     NV89121          20214B & R PROPERTY MANAGEMENT INC      MCCULLOUCH HALL PROPERTIES, LLC    0000050000050000050000048557                                                         W003                                                                                                                                                                                                                                                                                                                                                                                                                                                               00000                                   1
02632001082200000024D880171874TROPICANA VILLAGE                  4995 W MARYLAND PKWY               LAS VEGAS                     NV89119          20214B & R PROPERTY MANAGEMENT INC      PALMER HALL PROPERTIES, LLC        0000060000060000070000064551                                                         W003                                                                                                                                                                                                                                                                                                                                                                                                                                                               00000                                   1
02632001082200000025D880171874DESERT MEADOWS                     9655 ENSWORTH STREET               LAS VEGAS                     NV89123          20214B & R PROPERTY MANAGEMENT INC      ENSWORTH APARTMENTS, INC.          0000050000050000050000063047                                                         W003                                                                                                                                                                                                                                                                                                                                                                                                                                                               00000                                   1
02632001082200000026D880171874YARDZ AT MIRABELLI                 6250 HARGROVE AVENUE               LAS VEGAS                     NV89107    93    20214B & R PROPERTY MANAGEMENT INC      JONES & 95 VEGAS, LLC              0000000000000000000000000000                                                         W003                                                                                                                                                                                                                                                                                                                                                                                                                                                               00000                                   1
02632001082200000029D880171874CRESCENT PLACE APARTMENTS          5055 TAMARUS STREET                LAS VEGAS                     NV89119    93    20214B & R PROPERTY MANAGEMENT INC      5055 TAMARUS STREET, LLC           0000000000000000000000000000                                                         W003                                                                                                                                                                                                                                                                                                                                                                                                                                                               00000                                   1
02632001082200000030D880171874ASHTON PARK                        4441 ESCONDIDO STREET              LAS VEGAS                     NV89119          20214B & R PROPERTY MANAGEMENT INC      EVERGROW PROPERTIES, LLC           0000030000030000030000029945                                                         W003                                                                                                                                                                                                                                                                                                                                                                                                                                                               00000                                   1
02632001082200000031D880171874RAVELLO TOWNHOMES                  4350 CAPPAS STREET                 LAS VEGAS                     NV89115    93    20214B & R PROPERTY MANAGEMENT INC      4350 CAPPAS STREET, LLC            0000000000000000000000000000                                                         W003                                                                                                                                                                                                                                                                                                                                                                                                                                                               00000                                   1
02632001082200000032D880171874YARDZ ON WEST CHEYENNE             5507 W CHEYENNE AVENUE             LAS VEGAS                     NV89108    93    20214B & R PROPERTY MANAGEMENT INC      CHEYENNE VEGAS, LLC                0000000000000000000000020230                                                         W003                                                                                                                                                                                                                                                                                                                                                                                                                                                               00000                                   1
02632001272970000000D911414851                                                                                                                     20214EMERALD CASCADE RESTRNT SYSTM                                                                                                                              W                                                                                                                                                                                        HEATHER                            ADMINISTRATIVE ASSISTANT           1430 BLUE OAKS BLVD STE 270                                           ROSEVILLE                     CA95747    9167576780     9164156287HEATHER@PAYARCHCM.COM                                       00000                                   1
02632001272970000003D911414851JACK IN THE BOX                    655 E PRATER WAY                   SPARKS                        NV89431          20214EMERALD CASCADE RESTRNT SYSTM      7306                               0000230000250000230000125723                                                         W031                                                                                                                                                                                                                                                                                                                                                                                                                                                               00000                                   1
02632001272970000004D911414851JACK IN THE BOX                    5095 S MCCARRAN BLVD               RENO                          NV89502          20214EMERALD CASCADE RESTRNT SYSTM      7301                               0000300000270000230000160354                                                         W031                                                                                                                                                                                                                                                                                                                                                                                                                                                               00000                                   1
02632001272970000005D911414851JACK IN THE BOX                    881 APPLE STREET                   RENO                          NV89502          20214EMERALD CASCADE RESTRNT SYSTM      7302                               0000250000230000210000128794                                                         W031                                                                                                                                                                                                                                                                                                                                                                                                                                                               00000                                   1
02632001272970000006D911414851JACK IN THE BOX                    2289 ODDIE BLVD                    SPARKS                        NV89431          20214EMERALD CASCADE RESTRNT SYSTM      7303                               0000270000260000300000158327                                                         W031                                                                                                                                                                                                                                                                                                                                                                                                                                                               00000                                   1
02632001272970000007D911414851EMERALD CASCADE RESTAURANT SYSTEM  4655 LONGLEY LANE STE 105          RENO                          NV89502          20214EMERALD CASCADE RESTRNT SYSTM      00099/8888                         0000080000090000070000185816                                                         W031                                                                                                                                                                                                                                                                                                                                                                                                                                                               00000                                   1
02632001272970000009D911414851JACK IN THE BOX                    55 S TAYLOR STREET                 FALLON                        NV89406          20214EMERALD CASCADE RESTRNT SYSTM      #7307                              0000240000190000180000147137                                                         W001                                                                                                                                                                                                                                                                                                                                                                                                                                                               00000                                   1
02632001272970000010D911414851JACK IN THE BOX                    410 KEYSTONE AVE                   RENO                          NV89503          20214EMERALD CASCADE RESTRNT SYSTM      7305                               0000250000290000230000145649                                                         W031                                                                                                                                                                                                                                                                                                                                                                                                                                                               00000                                   1
02632001272970000011D911414851JACK IN THE BOX                    10450 N MCCARRAN BLVD              RENO                          NV89503          20214EMERALD CASCADE RESTRNT SYSTM      7310                               0000190000170000170000101033                                                         W031                                                                                                                                                                                                                                                                                                                                                                                                                                                               00000                                   1
02632001272970000012D911414851JACK IN THE BOX                    309 E WILLIAMS STREET              CARSON CITY                   NV89701          20214EMERALD CASCADE RESTRNT SYSTM      7308                               0000260000240000210000111311                                                         W510                                                                                                                                                                                                                                                                                                                                                                                                                                                               00000                                   1
02632001272970000013D911414851JACK IN THE BOX                    1345 HWY 395                       GARDNERVILLE                  NV89410          20214EMERALD CASCADE RESTRNT SYSTM      7309                               0000170000190000200000100781                                                         W005                                                                                                                                                                                                                                                                                                                                                                                                                                                               00000                                   1
02632001272970000014D911414851JACK IN THE BOX                    350 INTERSTATE 80                  VERDI                         NV89439          20214EMERALD CASCADE RESTRNT SYSTM      7311                               0000080000060000070000037246                                                         W031                                                                                                                                                                                                                                                                                                                                                                                                                                                               00000                                   1
02632001272970000015D911414851JACK IN THE BOX                    225 HWY 95A NORTH                  FERNLEY                       NV89408          20214EMERALD CASCADE RESTRNT SYSTM      7315                               0000170000200000200000113363                                                         W019                                                                                                                                                                                                                                                                                                                                                                                                                                                               00000                                   1
02632001272970000016D911414851JACK IN THE BOX                    179 DAMONTE RANCH PARKWAY          RENO                          NV89511          20214EMERALD CASCADE RESTRNT SYSTM      7314                               0000080000080000070000057058                                                         W031                                                                                                                                                                                                                                                                                                                                                                                                                                                               00000                                   1
02632001272970000017D911414851JACK IN THE BOX                    185 LEMMON DRIVE                   RENO                          NV89506          20214EMERALD CASCADE RESTRNT SYSTM      7316                               0000270000300000310000170332                                                         W031                                                                                                                                                                                                                                                                                                                                                                                                                                                               00000                                   1
02632001272970000018D911414851JACK IN THE BOX                    #3 RETAIL ROAD                     DAYTON                        NV89403          20214EMERALD CASCADE RESTRNT SYSTM      7317                               0000260000220000220000111698                                                         W019                                                                                                                                                                                                                                                                                                                                                                                                                                                               00000                                   1
02632001272970000019D911414851JACK IN THE BOX                    122 LOS ALTOS PKWY                 SPARKS                        NV89436          20214EMERALD CASCADE RESTRNT SYSTM      7318                               0000240000240000240000139050                                                         W031                                                                                                                                                                                                                                                                                                                                                                                                                                                               00000                                   1
02632001272970000020D911414851JACK IN THE BOX                    3225 RETAIL DRIVE                  CARSON CITY                   NV89706          20214EMERALD CASCADE RESTRNT SYSTM      7320                               0000200000210000200000086852                                                         W510                                                                                                                                                                                                                                                                                                                                                                                                                                                               00000                                   1
02632001272970000021D911414851JACK IN THE BOX                    218 W WINNEMUCCA BLVD              WINNEMUCCA                    NV89445          20214EMERALD CASCADE RESTRNT SYSTM      7319                               0000150000160000170000103190                                                         W013                                                                                                                                                                                                                                                                                                                                                                                                                                                               00000                                   1
02632001272970000022D911414851JACK IN THE BOX                    2423 MOUNTAIN CITY HWY             ELKO                          NV89801          20214EMERALD CASCADE RESTRNT SYSTM      7322                               0000200000170000190000094628                                                         W007                                                                                                                                                                                                                                                                                                                                                                                                                                                               00000                                   1
02632001272970000030D911414851EMERALD CASCADE RESTAURANT SYSTEM  3665 S CARSON ST                   CARSON CITY                   NV89701    85    20214EMERALD CASCADE RESTRNT SYSTM      7304                               0000010000010000010000009686                                                         W51000055722513    20211001                                                                                                                                                                                                                                                                                                                                                                                                                                        00000                                   1
02632001439660000000D880213029                                                                                                                     20214ROOSTER PHILBEN INC                                                                                                                                        W                                                                                                                                                                                        CONNIE BRONOWITZ                   PAYROLL ADMINISTRATOR              10151 PARK RUN DRIVE                                                  LAS VEGAS                     NV8914588597022270444127  7022270116CBRONOWITZ@SMC-LV.COM                                       00000                                   1
02632001439660000001D880213029STOUT MANAGEMENT CORPORATE         10151 PARK RUN DRIVE               LAS VEGAS                     NV89145          20214ROOSTER PHILBEN INC                01 99 - CORPORATE OFFICE           0000370000410000450000627801                                                         W003                                                                                                                                                                                                                                                                                                                                                                                                                                                               00000                                   1
02632001439660000010D880213029BOSSA NOVA                         3940 ALGONQUIN                     LAS VEGAS                     NV89119          20214ROOSTER PHILBEN INC                28                                 0000070000070000070000075106                                                         W003                                                                                                                                                                                                                                                                                                                                                                                                                                                               00000                                   1
02632001439660000016D880213029DESERT SKY                         9655 LAS VEGAS BLVD S              LAS VEGAS                     NV89123          20214ROOSTER PHILBEN INC                5                                  0000040000040000040000037491                                                         W003                                                                                                                                                                                                                                                                                                                                                                                                                                                               00000                                   1
02632001439660000029D880213029PALMS, THE                         713 E SAHARA AVE                   LAS VEGAS                     NV89104          20214ROOSTER PHILBEN INC                45                                 0000040000050000050000059787                                                         W003                                                                                                                                                                                                                                                                                                                                                                                                                                                               00000                                   1
02632001439660000031D880213029ROSEWOOD PARK                      3225 S PECOS ROAD                  LAS VEGAS                     NV89121          20214ROOSTER PHILBEN INC                39                                 0000050000050000050000065394                                                         W003                                                                                                                                                                                                                                                                                                                                                                                                                                                               00000                                   1
02632001439660000041D880213029BOLERO                             1500 E VIKING ROAD                 LAS VEGAS                     NV89119          20214ROOSTER PHILBEN INC                34                                 0000030000030000030000046371                                                         W003                                                                                                                                                                                                                                                                                                                                                                                                                                                               00000                                   1
02632001439660000042D880213029VILLA DEL SOL                      4255 S CHANNEL 10 DRIVE            LAS VEGAS                     NV89119          20214ROOSTER PHILBEN INC                35                                 0000030000020000020000032072                                                         W003                                                                                                                                                                                                                                                                                                                                                                                                                                                               00000                                   1
02632001439660000056D880213029TIERRA VILLAS                      3540 N HUALAPAI WAY                LAS VEGAS                     NV89129          20214ROOSTER PHILBEN INC                51                                 0000020000020000020000027530                                                         W003                                                                                                                                                                                                                                                                                                                                                                                                                                                               00000                                   1
02632001439660000060D880213029CANYON CREEK                       2700 N RAINBOW BLVD                LAS VEGAS                     NV89108    31    20214ROOSTER PHILBEN INC                7                                  0000040000040000040000057090                                                         W003                                                                                                                                                                                                                                                                                                                                                                                                                                                               00000                                   1
02632001439660000070D880213029TOSCANA (NEW)                      4550 E KAREN AVE                   LAS VEGAS                     NV89121          20214ROOSTER PHILBEN INC                108                                0000040000040000030000045160                                                         W003                                                                                                                                                                                                                                                                                                                                                                                                                                                               00000                                   1
02632001439660000074D880213029RANCHO VISTA                       3663 S VALLEY VIEW BLVD            LAS VEGAS                     NV89103    15    20214ROOSTER PHILBEN INC                64                                 0000030000030000030000057702                                                         W003                                                                                                                                                                                                                                                                                                                                                                                                                                                               00000                                   1
02632001439660000079D880213029SAND POINTE                        2855 S SANDHILL ROAD               LAS VEGAS                     NV89121          20214ROOSTER PHILBEN INC                66                                 0000010000010000010000022628                                                         W003                                                                                                                                                                                                                                                                                                                                                                                                                                                               00000                                   1
02632001439660000080D880213029SIENA TOWNHOMES                    1950 N SIMMONS STREET              LAS VEGAS                     NV89106    9399  20214ROOSTER PHILBEN INC                74                                 0000040000020000000000045618NO LONGER MANAGING AS ON NOV 2021*R*                     W003                       20211130                                                                                                                                                                                                                                                                                                                                                                                                                                00000                                   1
02632001439660000083D880213029WYNN PALMS                         3800 WYNN ROAD                     LAS VEGAS                     NV89103    9399  20214ROOSTER PHILBEN INC                58                                 0000120000110000000000127572NO LONGER MANAGING AS OF 11/16/2021*R*                   W003                       20211130                                                                                                                                                                                                                                                                                                                                                                                                                                00000                                   1
02632001439660000090D880213029OLIVE GROVE                        4450 KAREN PINES                   LAS VEGAS                     NV89121          20214ROOSTER PHILBEN INC                48                                 0000030000040000030000041121                                                         W003                                                                                                                                                                                                                                                                                                                                                                                                                                                               00000                                   1
02632001439660000092D880213029SARATOGA                           522 N LAMB BLVD                    LAS VEGAS                     NV89110          20214ROOSTER PHILBEN INC                73                                 0000010000010000010000014169                                                         W003                                                                                                                                                                                                                                                                                                                                                                                                                                                               00000                                   1
02632001439660000093D880213029THE LANDINGS                       4805 HEIDI STREET                  LAS VEGAS                     NV89119          20214ROOSTER PHILBEN INC                23                                 0000020000020000020000014643                                                         W003                                                                                                                                                                                                                                                                                                                                                                                                                                                               00000                                   1
02632001439660000094D880213029THE COMMONS                        787 E HARMON AVE                   LAS VEGAS                     NV89119          20214ROOSTER PHILBEN INC                8                                  0000010000010000010000011153                                                         W003                                                                                                                                                                                                                                                                                                                                                                                                                                                               00000                                   1
02632001439660000096D880213029CORONADO BAY                       7600 S JONES BLVD                  LAS VEGAS                     NV89139          20214ROOSTER PHILBEN INC                26                                 0000070000070000070000090401                                                         W003                                                                                                                                                                                                                                                                                                                                                                                                                                                               00000                                   1
02632001439660000100D880213029PECOS CREEK BLUE                   1830 N PECOS BLVD                  LAS VEGAS                     NV89115          20214ROOSTER PHILBEN INC                43                                 0000010000010000010000012606                                                         W003                                                                                                                                                                                                                                                                                                                                                                                                                                                               00000                                   1
02632001439660000112D880213029SEQUOIA MEADOWS (NEW)              5301 W PIONEER AVENUE              LAS VEGAS                     NV89146          20214ROOSTER PHILBEN INC                22                                 0000040000040000040000049738                                                         W003                                                                                                                                                                                                                                                                                                                                                                                                                                                               00000                                   1
02632001439660000114D880213029ASPEN PEAK                         833 ASPEN PEAK LOOP                HENDERSON                     NV89011    9399  20214ROOSTER PHILBEN INC                18                                 0000010000010000000000016937NO LONGER MANAGING AS OF 12/9/2021*R*                    W003                       20211130                                                                                                                                                                                                                                                                                                                                                                                                                                00000                                   1
02632001439660000115D880213029SKY LAS VEGAS CONDOMINIUMS INC     2700 LAS VEGAS BLVD S              LAS VEGAS                     NV89183          20214ROOSTER PHILBEN INC                55                                 0000020000020000020000010304                                                         W003                                                                                                                                                                                                                                                                                                                                                                                                                                                               00000                                   1
02632001439660000118D880213029PARK 80                            4480 W SIRIUS AVE                  LAS VEGAS                     NV89102          20214ROOSTER PHILBEN INC                67                                 0000040000040000040000061267                                                         W003                                                                                                                                                                                                                                                                                                                                                                                                                                                               00000                                   1
